:020000040001F9
:10B00000B8350020F5B001000FB1010011B1010009
:10B010000000000000000000000000000000000030
:10B0200000000000000000000000000013B101005B
:10B03000000000000000000015B1010017B1010080
:10B0400019B1010019B1010009B9010049B80100A5
:10B0500019B101000000000019B2010019B101008E
:10B0600019B1010019B1010019B1010019B10100B4
:10B0700019B1010019B1010019B1010019B10100A4
:10B0800019B1010039B5010019B1010019B1010070
:10B0900061B8010019B1010069B8010019B10100DE
:10B0A00019B1010019B1010000000000000000000A
:10B0B0000000000000000000000000000000000090
:10B0C0000348854600F096F80048004755FB01000C
:10B0D000B8350020401E00BF00BF00BF00BF00BF4A
:10B0E00000BF00BF00BF00BF00BF00BF00BFF1D165
:10B0F000704700000321094802680A4302600848BB
:10B1000002680A4302600748804707480047FEE795
:10B11000FEE7FEE7FEE7FEE7FEE70000240500404D
:10B1200054050040A5B80100C1B0010030B50B4680
:10B13000014600202022012409E00D46D5409D4211
:10B1400005D31D469540491B254695404019154697
:10B15000521E002DF1DC30BD70B5002425460028BC
:10B1600001DA01244042002901DA01254942FFF7B2
:10B17000DDFFAC4200D04042002C00D0494270BDFF
:10B1800003460B439B0703D009E008C9121F08C000
:10B19000042AFAD203E00B780370401C491C521EAB
:10B1A000F9D27047D2B201E00270401C491EFBD2B6
:10B1B00070470022F6E710B513460A4604461946C2
:10B1C000FFF7F0FF204610BD30B5044600200346CF
:10B1D00000E05B1C934203D2E05CCD5C401BF8D0E6
:10B1E00030BD03460A780270401C491C002AF9D180
:10B1F00018467047064C0125064E05E0E36807CC6B
:10B200002B430C3C98471034B442F7D3FFF75CFF54
:10B210004024020060240200F0B58BB0002700201B
:10B220000A90FF20013009900125002416E00998BA
:10B2300005F094F800280BD000BF70484068284003
:10B24000002805D0099805F081F8384628430746BC
:10B250006D000998001D80B20990641C042CE6D38F
:10B26000FF207D3005F07AF800280AD0FF207D30DD
:10B2700005F06CF80120C007074300BF6048006973
:10B280000A903807000F00282AD00125002425E065
:10B290002846384000281FD000BF5A4851210901D4
:10B2A0004018A10040581F2109020840000A0890D8
:10B2B00000BF5448512109014018A1004058032102
:10B2C00009040840000C0790204602F0AFFB064638
:10B2D00007990898B04700BF6D00641C042CD7D3B1
:10B2E000F80FC00700287DD0002008900790401E6E
:10B2F000069000BF00200890002464E04248005DF2
:10B300000590C0210598884306463F480057401CD9
:10B31000002857D00120B04006990840002851D09D
:10B32000C0210598084080110490304602F0C2FB0D
:10B33000029002F07BFB03900398002802D104984E
:10B3400003283ED10120B04005460498032802D1CD
:10B3500007982843079000BF05200007072109022E
:10B360004018B1004058032109040840000C029025
:10B370000A982840002802D00298022806D00A988D
:10B38000284000281CD10298032819D104980328CA
:10B390000FD10298022801D1032000E00220019081
:10B3A0003046019904F088FF0898401CC0B208900C
:10B3B00000BF0398002803D03046039A04999047B1
:10B3C00000BF00BF641C042C98D3089800280ED03E
:10B3D00000BF0B49096908460A99884203D1002138
:10B3E000089103E008E00A900799069100BF0898C9
:10B3F000002800D07EE700BF0BB0F0BD0063004026
:10B4000000050050006000406C270020C206D20EEC
:10B4100001219140014A11607047000080E200E084
:10B42000C206D20E01219140014A1160704700000E
:10B4300000E100E0C206D20E01219140014A1160F4
:10B440007047000000E200E010B5002819DA1A4A3F
:10B4500003071B0F083B9B089B00D2588307DC0E99
:10B46000FF23A3409A438B071B0E8407E40EA340DF
:10B470001A43114B0407240F083CA408A4001A51D6
:10B4800018E00E4A03231B02D21883089B00D258EF
:10B490008307DC0EFF23A3409A438B071B0E840710
:10B4A000E40EA3401A43054B032424021B1984080D
:10B4B000A4001A5110BD00001CED00E000E100E006
:10B4C00010B5002819DA1A4A03071B0F083B9B081E
:10B4D0009B00D2588307DC0EFF23A3409A438B07BF
:10B4E0001B0E8407E40EA3401A43114B0407240FDC
:10B4F000083CA408A4001A5118E00E4A03231B02BA
:10B50000D21883089B00D2588307DC0EFF23A34088
:10B510009A438B071B0E8407E40EA3401A43054B86
:10B52000032424021B198408A4001A5110BD000032
:10B530001CED00E000E100E010B5002007490860C4
:10B540000021064841608160C16000200349403904
:10B550000860486006F086FB10BD00004011014005
:10B56000F8B504460D46164600BF08480078002886
:10B5700001D100F0CDF900BF00BF32462946204678
:10B5800000F006F8074600BF3846F8BD3C2D002005
:10B59000F7B582B007461646039801901820784305
:10B5A0001B494018009000984069002804D00128E9
:10B5B00011D0022826D11EE0009800F0E1F90546DE
:10B5C000B54201D2002405E0344632460199009884
:10B5D00000F059FB18E0009800F0D2F90546B5429A
:10B5E00001D2284600E030460446224601990098E0
:10B5F00000F049FB08E032460199009800F006FB94
:10B60000044601E0002400BF00BF204605B0F0BDA5
:10B61000542D00200FB438B5044606A800906A46A1
:10B620002046059900F004F838BC08BC04B018475F
:10B63000F7B59AB00D46144602A815904020169012
:10B64000002017901A9819900020189000BF2E78AB
:10B650006D1C002E00D1E4E0252E79D100270120B9
:10B66000149000BF2E78232E12D02B2E0CD02D2E0E
:10B6700002D0302E10D103E0012007436D1C0EE0F4
:10B68000022007436D1C0AE0042007436D1C06E0FE
:10B69000082007436D1C02E00020149000BF00BF8B
:10B6A00014980028DED1129000BF2E78302E01DBD6
:10B6B000392E00DD08E06D1C0A21129848433146FE
:10B6C000303940181290F0E700BF002013902E7818
:10B6D0002E2E11D16D1C00BF2E78302E01DB392E9D
:10B6E00000DD08E06D1C0A211398484331463039CB
:10B6F00040181390F0E700BF2E7800BF6C2E01D0E9
:10B70000682E02D12E786D1C00E000E0F6E700BF45
:10B71000702E63D008DC252E72D0582E38D0632EC0
:10B7200009D0642E71D114E0732E40D0752E1FD035
:10B73000782E6AD12BE02168081D206008681490DB
:10B740001498C0B2019015A8019900F03DFA5DE08F
:10B750005FE02168081D2060086814901298019726
:10B7600000900A2215A8139B149900F017F94DE0D8
:10B770002168081D206008681490129801970090B5
:10B780000A2215A8139B149900F090F93EE000BF1F
:10B790002168081D20600868149012980197009095
:10B7A000102215A8139B149900F080F92EE021684F
:10B7B000081D20600868019000BF01980678019874
:10B7C000401C0190002E00D106E0314615A800F083
:10B7D000FBF918980028F0DA00BF17E02168081D6F
:10B7E000206008681490002008210B461022009168
:10B7F000019015A8149900F059F907E000E004E061
:10B80000252115A800F0E0F900E000BF00BF6D1C85
:10B8100003E0314615A800F0D7F91898002800DB9E
:10B8200015E700BF189800280BDD1798002804D0F2
:10B8300002A9179A1A98FFF793FE179918984018BB
:10B84000189018981DB0F0BD10B5034C2146034860
:10B8500003F06AFF10BD0000742800200030004093
:10B8600010B506F013F910BD70B50C48006800283B
:10B8700011D00A4800688047044600BF2546002DC5
:10B8800007D000BF064AFF216731284600F0D2FCEE
:10B8900000BF00BF01E003F0E7FE70BD642100209F
:10B8A000E823020010B503F07FFF002805D0104800
:10B8B00010494860C8131049886103F059FF0028F7
:10B8C00002D001200D49886003F0D0FF00280ED07F
:10B8D0000B480068012807D00A480949086000BFE2
:10B8E000074800680128FBD1C0200549486110BD08
:10B8F000DFFF07C000050040006C0040000600406C
:10B9000000EC06407593000010B506F0D7FA10BDA4
:10B9100010B5124C02202061606111A0A061134992
:10B92000E1610121890221620021A1626162E1627B
:10B930000BA0A0640E49E164102121650021A165DE
:10B940006165E1650BA1E01DFFF74BFC0AA12046F4
:10B95000FFF747FC2020A07110BD00003C2D002007
:10B960005465726D696E616C000000002C29002026
:10B970002C2D002052545400534547474552000097
:10B9800010B501460A69CB689A4204D88C68641ED7
:10B99000E41AA01801E0D41A601E10BDFFB585B0EE
:10B9A00006460F460F9D0E9C002F01DA784200E0FC
:10B9B000384603900120049007E007990398FFF7A9
:10B9C000CBFB03900498401C04900799039888428D
:10B9D000F3DA04990898884201D908980490002C59
:10B9E00006D0002F03DB04202840042800D1641E69
:10B9F00002202840002802D00898002815D0E80727
:10BA0000C00F002811D1002C0FD008E0641E2021A7
:10BA1000304600F0D9F8F068002800DA04E0002C85
:10BA200002D00498A042F1D300BFF06800283ADBAE
:10BA3000002F05DA7F422D21304600F0C5F807E0DF
:10BA400004202840042803D12B21304600F0BCF804
:10BA5000F068002827DB02202840022818D1E807D8
:10BA6000C00F002814D10898002811D1002C0FD045
:10BA700008E0641E3021304600F0A6F8F068002887
:10BA800000DA04E0002C02D00498A042F1D300BFF9
:10BA9000F068002807DB0195009439463046089B82
:10BAA000079A00F003F809B0F0BD0000FFB585B0BB
:10BAB000064617461D460E9C0698029001200390EC
:10BAC000019007E039460298FFF730FB0290019899
:10BAD000401C01900298B842F4D20198854200D9E6
:10BAE00001950F98C007C00F00281DD1002C1BD056
:10BAF00002210F980840022804D1002D02D13020E5
:10BB0000009001E02020009008E0641E304600997B
:10BB100000F05AF8F068002800DA04E0002C02D0A7
:10BB20000198A042F1D300BFF068002848DB0FE085
:10BB3000012D01D96D1E08E003990698FFF7F6FA6A
:10BB400004900498B84200D203E00398784303902D
:10BB5000EEE700BF00BF03990698FFF7E7FA0490ED
:10BB60000399049848430699081A0690154A0498C0
:10BB7000115C304600F028F8F068002800DA07E091
:10BB800039460398FFF7D2FA039003980028E2D1D0
:10BB900000BF0F98C007C00F002811D0002C0FD095
:10BBA00008E0641E2021304600F00EF8F0680028FE
:10BBB00000DA04E0002C02D00198A042F1D300BFCB
:10BBC00009B0F0BD8C23020070B504460E46A5688E
:10BBD000681C6168814206D320684655681CA060D5
:10BBE000E068401CE0606168A06888420DD1A268EE
:10BBF00021682069FFF7B4FCA168884203D00020C7
:10BC0000C043E06001E00020A06070BDF7B582B0E5
:10BC10000446174600200190E56800BF20690090A7
:10BC20000098A84203D90098401B461E04E0A16872
:10BC30000098281A401C0E1AA068401BB04201D977
:10BC4000304601E0A068401B0646BE4201D23046A5
:10BC500000E0384606466168481932460399FFF706
:10BC60008FFA019880190190039880190390BF1BE7
:10BC7000AD19A068A84200D10025E560002FCDD104
:10BC8000019805B0F0BDF7B582B004461546E668E8
:10BC9000A068871BAF4208D9616888192A460399B2
:10BCA000FFF76EFA7019E06010E00197616888197B
:10BCB000019A0399FFF764FAE81B0190039AD119DE
:10BCC0006068019AFFF75CFA0198E06005B0F0BD8A
:10BCD00030B47446641E2578641CAB4204D3635DA3
:10BCE0005B00E31830BC18471D46F8E702E008C8BF
:10BCF000121F08C1002AFAD170477047002001E0E6
:10BD000001C1121F002AFBD17047F7B582B004466B
:10BD100016460025378800203080606B00280ED042
:10BD2000616B08783B463246039905F061FA054697
:10BD300000BF002D02D0284605B0F0BD00BF206B2B
:10BD400000280CD03B463246206B039906F00EF8D3
:10BD5000054600BF002D01D02846EDE700BF2E208C
:10BD6000005D00280DD02E21085D3B463246039928
:10BD700003F0D7FD054600BF002D01D02846DBE7C4
:10BD800000BF2D20005D00280BD03A4631460398B5
:10BD900000F09DFF054600BF002D01D02846CBE7EF
:10BDA00000BFA07800280BD03A463146039800F037
:10BDB00099FB054600BF002D01D02846BCE700BF17
:10BDC000E07800280DD0E17848B23B46324603992E
:10BDD00003F09BF9054600BF002D01D02846ABE7D4
:10BDE00000BF606800280ED00020616808563B46FE
:10BDF0003246039906F046F8054600BF002D01D0F3
:10BE0000284699E700BF208900280FDD019700969A
:10BE10000622022120460830039B06F099F90546C8
:10BE200000BF002D01D0284686E700BF208A0028E9
:10BE30000FDD019700960722032120461030039B57
:10BE400006F086F9054600BF002D01D0284673E7AD
:10BE500000BF208B00280FDD0197009615221421CA
:10BE600020461830039B06F073F9054600BF002DED
:10BE700001D0284660E700BF206A00280CD03B466E
:10BE80003246206A039901F0F5FF054600BF002DF8
:10BE900001D0284650E700BF606A00280CD03B461E
:10BEA0003246606A039903F0C5FE054600BF002DC7
:10BEB00001D0284640E700BF2C20005D00280CDDA3
:10BEC0003B4632462046039905F00EFA054600BF70
:10BED000002D01D028462FE700BF207800280CD085
:10BEE0003B4632462046039903F0E0FE054600BF7C
:10BEF000002D01D028461FE700BF28461CE7014659
:10BF0000C87804221040002801D107207047002083
:10BF1000FCE710B501220221002001F0A5F904463A
:10BF200000BF002C03D0072C01D0204610BD00BF5D
:10BF300007220221012001F097F9044600BF002CDE
:10BF400003D0072C01D02046F0E700BF0A220021D1
:10BF5000084601F089F9044600BF002C03D0072CE5
:10BF600001D02046E2E700BF0020DFE730B5A7B0F0
:10BF7000382119A8FFF71DF9022118A8017106211F
:10BF8000C171242110A8FFF714F9012110A8017331
:10BF9000FF202D301490B4201590382102A8FFF70F
:10BFA00008F90121684601830C49079100200C4BD8
:10BFB00010AA02A9009019A800F016FB044600BFC1
:10BFC0002546002D06D000BF06A20A49284600F0EB
:10BFD00031F900BF00BF27B030BD0000862000202F
:10BFE000F90302002E2E5C2E2E5C2E2E5C6D6169F4
:10BFF0006E2E63000902000013B582B00BA000682A
:10C00000019000BF00200346042201A9009002A86D
:10C0100004F0D4F80446002C06D000BF04A20B2183
:10C02000204600F007F900BF00BF1FBD31012D08F9
:10C030002E2E5C2E2E5C2E2E5C6164786C33343593
:10C040002E630000FFB583B015461C460C9F802070
:10C0500028430290012C04DD6946087A40210843F8
:10C06000029000BF3B46012202A903A8009404F0FD
:10C07000A5F80646002E06D000BF04A216213046C1
:10C0800000F0D8F800BF00BF07B0F0BD2E2E5C2E28
:10C090002E5C2E2E5C6164786C3334352E63000088
:10C0A00017B585B0144602A80623322200900699DF
:10C0B0000598FFF7C7FF6846407A01026846007A94
:10C0C000014321606846C07A01026846807A0143D4
:10C0D00061606846407B00026946097B0843A060B6
:10C0E00008B010BD3EB504466A460A4803C8FFF7CB
:10C0F000D7FF0098001240B2074908620198001269
:10C1000041B2054841620298001241B20248816280
:10C110003EBD00009C220200F4210020014600BF29
:10C12000064A50680122D2058243044B9A600122DC
:10C13000D2050240DA6000BF7047000000050050E1
:10C1400010B5002407E0E100064A1268505C0121A6
:10C1500003F056FE641C044800788442F3D30020A8
:10C1600010BD00002421002028210020FEB5064635
:10C170000C461746052F01D20720FEBD03F056FFDF
:10C18000002808D103F02AFF054600BF002D01D08A
:10C190002846F2E700BF17480660174804701748A2
:10C1A00007600020164908601649086017E0E000A3
:10C1B00080190190144800680090019880786946C1
:10C1C000487001990878114A694603F07DFE0546DA
:10C1D00000BF002D01D02846CFE700BF00BF20469A
:10C1E000611ECCB20028E2D1094A0021094800F0C2
:10C1F000AFF8C2E724210020282100202C210020B4
:10C2000030210020342100208823020079F501002C
:10C21000F9E101008423020070B504460D4616467C
:10C220000C2001F04FF832462946204600F012F863
:10C2300070BD0000FEB504460E46154669460E80E8
:10C24000019502946A4600210148FFF7E5FFFEBD13
:10C250000140000018B5012400946B461B781E4B6A
:10C26000186059609A601D4BC318002B0CD0012B2D
:10C2700019D1194BDA60DB681B88174CA361234680
:10C28000DB685B68E3610EE0134B1A611B699B6816
:10C29000114C636123461B691B88A36123461B69FC
:10C2A0005B68E36100BF00BF0B4B1B680A4B5B6818
:10C2B000094B9B68084BDB68074B1B69064B5B69A6
:10C2C000054B9B69044BDB6972B600BF6B461B785C
:10C2D000002BFBD162B618BDB4280020FFBFFFFFC2
:10C2E000F8B504460D461646034807683246294607
:10C2F0002046B847F8BD000008270020F8B50546DD
:10C300000C4627780C21A068484306490E58064879
:10C31000006800902A463946204608302369B04715
:10C32000F8BD00005C2800201C21002010B5044648
:10C330000648007814225043044A121D81182046F2
:10C34000FFF7DCFF042005F061F810BD9027002006
:10C3500010B503460C4600BF0D480068002801D107
:10C36000082010BD00BF002A01D10720F9E7002BEB
:10C3700001D10720F5E71868007C002801D00820CB
:10C38000EFE71968002008744C744A6100BFE8E7C1
:10C390003C210020FFB581B00E4614461F462046C2
:10C3A0008107890F002901D1012100E00021002926
:10C3B00002D1072005B0F0BD002C04D100201C499B
:10C3C00008600720F6E704F031FE1A4807600320F2
:10C3D0001949087016480460183400250CE0E9007B
:10C3E000134A1268881800210170417086704460F9
:10C3F000182171430C196D1C032DF0DB00200F492F
:10C4000008600F4908700F4908701420FEF7FEFFFE
:10C4100003211420FFF754F81420FFF701F80198C6
:10C4200004F0DAFD04F0D2FD074908600020C1E7FE
:10C430003C210020542100203821002040210020F0
:10C44000502100205121002044210020FEB5044647
:10C450000D461746264600BF12480068002801D145
:10C460000820FEBD00BF002C01D10820F9E7052DF2
:10C4700001D20720F5E77069002801D10820F0E714
:10C48000707C012801D1284600E00020029005F0D0
:10C4900035FE009701902A463146029B05F096FB37
:10C4A000DFE700003C21002070B50446254600BFB0
:10C4B0000B480068002801D1082070BD00BF002C87
:10C4C00002D06869002801D10820F6E7002028740E
:10C4D00005F014FE0646294605F0A4FBEDE7000032
:10C4E0003C210020F8B505460C4617462088001D63
:10C4F000B84201D90C20F8BD684679DF064600BF76
:10C50000002E01D03046F6E700BF03202188685492
:10C510002088401C20801920218868542088401CD5
:10C520002080208841196846008805F081FD218817
:10C53000401820800020DEE710B5002202490348A1
:10C540000068FFF783FF10BDCD0C000098220200A9
:10C55000F3B593B00D461F21129111911398002845
:10C5600018D01398FFF7CBFC044600BF002C02D074
:10C57000204615B0F0BD00BF12AA09A91398FFF715
:10C58000C4FB044600BF002C01D02046F1E700BFE9
:10C5900009AE02E0002600201290002D17D0284698
:10C5A00005F011F8044600BF002C01D02046E0E75A
:10C5B00000BF11AA01A92846FFF7A7FB044600BF48
:10C5C000002C01D02046D4E700BF01AF02E00027D5
:10C5D0000020119010A88088C3B210A80089C1B2B1
:10C5E0003A46304672DFC4E7F8B504460F461546B2
:10C5F0001E4600BF002C01D10E20F8BD00BF00BFB9
:10C60000002D01D10E20F8E700BF00204849087036
:10C610004848066048490698086024222946474849
:10C62000FEF7AEFD00F050F945484649086046481F
:10C63000886038214548FEF7BCFD207843490870E2
:10C64000A0788870E078C870607848706269206966
:10C650004A6108610846E268A168C2608160E269D7
:10C66000A169C2618161606A00281BD038483749DE
:10C67000486238498160606A00883449496A0880A4
:10C68000606A80883149496A8880002005E0616AD3
:10C690008968095C2F4A1154401C2C49496A8988D1
:10C6A0008142F4D8A06A002824D02B492B4881600D
:10C6B0002649886228492548806A8160A06A808866
:10C6C0002249896A8880A06A00882049896A08808E
:10C6D000002005E0A16A8968095C1F4A1154401CCA
:10C6E0001A49896A89888142F4D82C20015D17484B
:10C6F00020300173206A00280BD0194813490862C2
:10C70000206A4088096A4880206A00880F49096ABF
:10C7100008806068002804D012480C4948606068AE
:10C72000486039460948FFF713FF0090009864E716
:10C73000C4200020BC200020C0200020D4240020E1
:10C7400008250020F8240020282500209C24002013
:10C750004825002054250020802500207425002035
:10C76000C8200020CC20002070B504462088102866
:10C7700004D0112809D01B286CD11DE0A07D012810
:10C7800002D1A0883549088065E00020344908704E
:10C79000A0883249098888420DD1012000F0DEF8D6
:10C7A0000546002D07D02F480068002803D02846F2
:10C7B0002C49096888474EE0207A002849D12A4848
:10C7C0000078012806D0022813D0032820D004289E
:10C7D0003DD12FE0022000F0C1F80546002D07D022
:10C7E00020480068002803D028461E490968884769
:10C7F0002EE0032000F0B2F80546002D07D01948BE
:10C800000068002803D028461649096888471FE0B9
:10C81000032016490870042000F0A0F80546002DFA
:10C8200007D010480068002803D028460D49096841
:10C8300088470DE000200D4908700D480068002869
:10C8400004D0084600780A490968884700E000BF1C
:10C8500000BF00E000BF00BF70BD0000CE20002080
:10C86000C5200020C0200020C4200020B8200020C7
:10C87000BC20002070B504460025022C02D0032CF9
:10C8800018D100E000BF0D480078002811D000202A
:10C890000A4908700A48007800F060F80546002D43
:10C8A00007D008480068002803D0284605490968D1
:10C8B000884700E000BF00BF70BD0000B02000202E
:10C8C000C4200020C020002010B507210148FEF739
:10C8D00070FC10BDB120002010B51B480078012865
:10C8E0002FD11A48007800282BD119480078002849
:10C8F00007D074DF044600BF002C01D0204610BDD5
:10C9000000BF01201149087006201249C87000219B
:10C910001048FFF71DFE044600BF002C01D0204642
:10C92000EDE700BF0A48007800F018F80446002C34
:10C9300007D009480068002803D020460649096846
:10C9400088470020DBE70000D4240020C520002019
:10C95000C42000209C240020C020002030B587B0D7
:10C960000546A248057002F0EBFB002805D0012027
:10C970009F490870002007B030BDFFF7A5FF9D4814
:10C980004078002803D09948007801280FD09948B2
:10C990008078002803D095480078012807D0954872
:10C9A0008078002812D09148007802280ED1924851
:10C9B0000068002807D001209049087008208E499F
:10C9C0000968884702E000208C4908708748007891
:10C9D00001280BD187484078002804D0884803F00C
:10C9E000FFFE002802D10220804908707F480078AD
:10C9F00002280BD17F488078002804D0804803F0BB
:10CA0000EFFE002802D10320784908707948007BA6
:10CA1000002806D175480078032802D10420734904
:10CA200008707448007E002808D1704800780428F7
:10CA300004D100206D490870724908706E48006882
:10CA4000002817D069480078032803D06748007889
:10CA500004280FD16748007800280BD06A48007876
:10CA6000002807D101206949087007206249096838
:10CA7000884702E0002065490870182101A8FEF7E8
:10CA800098FB0021684601710020029068460173FE
:10CA90000020049055480078012806D0022811D0C3
:10CAA000032823D004287CD152E05548401E029030
:10CAB0000121684601710021C18281820120514912
:10CAC000087079E04E48401E0290012168460171CD
:10CAD0004848008981B26846C1824648808881B250
:10CAE0006846818202204749087065E04148808A93
:10CAF00081B26846C1823F48008A81B2684681821D
:10CB0000434805F0BBFB00281ED03A4800780028B7
:10CB10001AD03D480078002816D1022069460873D3
:10CB20003B48049004203B49C87000213948FFF776
:10CB30000FFD044600BF002C01D020461BE700BFBC
:10CB400005203049087002E003202E49087033E0C8
:10CB50002848808B81B2684681822648008C81B249
:10CB60006846C1822A4805F089FB00281FD0214869
:10CB7000007800281BD024480078002817D1022014
:10CB8000694608732248049004202249C870002195
:10CB90002048FFF7DDFC044600BF002C02D02046F1
:10CBA000E9E608E000BF06201649087002E004200C
:10CBB0001449087000E000BF00BF0C48007800284E
:10CBC00008D001A873DF044600BF002C01D0204626
:10CBD000D1E600BF08480068002804D00948007862
:10CBE0000549096888470020C5E60000C4200020E8
:10CBF000B0200020D4240020BC200020C72000202A
:10CC0000B2200020B8200020C5200020C62000202F
:10CC1000F82400209C24002070B505461C222946DB
:10CC20001448FEF7ADFA0020134908702868002860
:10CC30000BD0082211482968FEF7A2FA0F487ADFC4
:10CC40000446002C08D0204670BD0C487BDF04460B
:10CC5000002C01D02046F7E70020C0430849088097
:10CC6000002008490870084A00210848FFF770FBB7
:10CC7000EAE70000A0250020E4200020D0200020CA
:10CC8000DA200020D82000206120020014230200B6
:10CC900010B504462088102806D0112808D0122884
:10CCA0000ED0502810D107E0204603F037FC0CE0EE
:10CCB000204603F051FC08E0204603F06FFC04E03E
:10CCC000204603F01FFC00E000BF00BF10BDFEB512
:10CCD00005460C46174620880930B84201D90C2079
:10CCE000FEBD684671DF064600BF002E01D030460B
:10CCF000F6E700BF0820218868542088401C208067
:10CD00001B20218868542088401C208021884819D5
:10CD1000062200A90131FEF733FA2088801D208009
:10CD200068460078002802D12188685402E001207A
:10CD3000218868542088401C20800020D0E7000013
:10CD400010B50446204601F00FFC2046FFF7A0FF77
:10CD5000204600F04FF9204603F074FB2046FFF711
:10CD600003FD2146014800F003F810BDF421002026
:10CD700070B504460E4600253088102804D01128CE
:10CD800009D01C2841D10AE0B088208020880522E3
:10CD9000114688DF3AE00020C043208036E00825B5
:10CDA000755725614F20C04385420CDA2A4618A1E9
:10CDB0000020FEF72FFC4325172003F0B1FA1820BE
:10CDC00003F0AEFA20E04020C04385420CDA2A4648
:10CDD00014A10020FEF71EFC4225172003F0A0FA44
:10CDE000182003F08DFA0FE03620C04385420BDA9D
:10CDF0002A4611A10020FEF70DFC4125172003F063
:10CE00007FFA182003F07CFA00E000BF00BF70BD7D
:10CE100052535349206973206261642C2025642198
:10CE20000A00000052535349206973206F6B2C2075
:10CE30002564210A000000005253534920697320E1
:10CE4000676F6F642C202564210A000070B586B0DE
:10CE50003B480068059000BF00234822394905A8D7
:10CE600004F01CFB054600BF2E46002E07D000BF75
:10CE700035A2FF2177313046FFF7DCF900BF00BF54
:10CE800000BF6A460121002004F0E6FA044600BF14
:10CE90002546002D07D000BF2BA2FF217D3128465B
:10CEA000FFF7C8F900BF00BF00BF2B4E304604F0AB
:10CEB00029F9044600BF2546002D07D000BF22A255
:10CEC000FF2180312846FFF7B5F900BF00BF00BF42
:10CED000012069460873684604F0B0FA044600BFB2
:10CEE0002546002D07D000BF17A2FF218531284617
:10CEF000FFF7A0F900BF00BF184804F091FA0446FC
:10CF000000BF2546002D07D000BF0FA2FF218931A9
:10CF10002846FFF78FF900BF00BF114804F0F4FA6C
:10CF2000044600BF2546002D07D000BF06A2FF2102
:10CF30008D312846FFF77EF900BF00BF06B070BDF7
:10CF4000A4220200E82300202E2E5C2E2E5C2E2E22
:10CF50005C6D61696E2E6300E81F002041CD010009
:10CF6000791902007CB50446A1786A460D4803F0A1
:10CF7000D7FC0546002D13D161781C2251430A4A83
:10CF800088181C231A46694603F006FE0748807A73
:10CF9000800007490A58214668469047054600BF69
:10CFA0007CBD0000E8200020BC26002008270020CF
:10CFB0002823020070B505460C4600260B48056084
:10CFC000002C09D0204604F006FB064600BF002EC8
:10CFD00001D0304670BD00BF05480068002802D16E
:10CFE000FEF797FF06463046F4E70000A820002031
:10CFF000AC20002070B505462888102802D01128E2
:10D0000032D118E01A48006800280ED100F0FAFF6B
:10D01000044600BF002C07D016480068002803D043
:10D02000204614490968884700BF11480068401C21
:10D030000F49086019E00E480068401E0C4908605E
:10D040000846006800280ED1FEF763FF044600BFC3
:10D05000002C07D007480068002803D02046054967
:10D060000968884700BF00E000BF00BF70BD000036
:10D07000AC200020A820002010B5032000F052FCB6
:10D08000044600BF002C03D0062C01D0204610BD62
:10D0900000BF0020FBE70000F3B581B00646002585
:10D0A000002400E0641C042C04D2A0002949085884
:10D0B000B042F7D1042C42D20298002825D0012892
:10D0C00002D002283AD133E06000201822490D5CDA
:10D0D000600020184018407800280ED01F480068D3
:10D0E0000A22504301461E4A1E480068FFF7AEF967
:10D0F0000746002F01D11A48067060002018164913
:10D10000401880781849085518E016480068FFF75D
:10D11000CBF91548005D610061180F4A89188978BC
:10D12000884204D16000201811464018857805E037
:10D130006000201808494018457800BF00BF002D46
:10D1400007D00A480068002803D028460749096824
:10D150008847FEBDE42202007024002090200020B9
:10D16000A0200020E0220200A12000209C2000201E
:10D1700010B50246042A0FD2094B1B69D84393000D
:10D18000084CE45C0123A3400340002B01D00123A1
:10D1900000E000230B7001E000200870002010BDAB
:10D1A00000050050E422020070B50546042D15D09C
:10D1B000072D28D00A2D02D0102D37D102E004F01F
:10D1C000EBF834E01B48C068401C1A49C8600846A8
:10D1D00019A1C2680020FEF71DFA28E013211D489E
:10D1E000008876DF0446082C0CD000BF2646002EAF
:10D1F00007D000BF18A2FF21A7313046FFF71AF869
:10D2000000BF00BF13E0FFF767FB0446082C0CD0FB
:10D2100000BF2646002E07D000BF0FA2FF21AF316E
:10D220003046FFF707F800BF00BF00E000BF00BFB7
:10D2300070BD0000F4210020427574746F6E2034BC
:10D2400020707265737365642025642074696D6550
:10D2500073210A00822000202E2E5C2E2E5C2E2EA2
:10D260005C6D61696E2E630030B503460020042BAF
:10D2700024D2012A07D1012903D11C460D34E4B27E
:10D2800000E00024224600290FD0012902D0022903
:10D2900011D104E05C001C19094D2A550DE05C0019
:10D2A0001C19074D6419627007E05C001C19044DDD
:10D2B0006419A27001E0072000BF00E0072030BD24
:10D2C0007024002070B50446002506480078C00789
:10D2D000C00F002803D0204600F070F8054628460D
:10D2E00070BD000094200020F7B505460E460024CE
:10D2F00027480660274805602749029808600220F1
:10D300002840002822D0002706E001221146384696
:10D31000FFF7AAFF04467F1C042F01D2002CF4D093
:10D32000002C05D1720804211C48FEF71FFF04469B
:10D33000002C02D1FEF704FF0446002C05D1184A48
:10D3400000211848FFF704F8044600BFE807C00FA3
:10D3500000280AD000BF0F20400513498860002034
:10D36000C86000BF0F2040058861002C05D10F4A1E
:10D3700000210F48FEF7ECFF0446002C05D10D4AB2
:10D3800001210D48FEF7E4FF04462046FEBD0000E3
:10D3900090200020942000209C200020F4220200F5
:10D3A00081D90100E0220200000500508DF9010042
:10D3B000D82202001DC10100DC220200F8B504469B
:10D3C000002500262300FEF783FC180D1E1F68B100
:10D3D000F9F8F7F6F5F4F3F2F1F0EFEEEDECEBEA35
:10D3E000E9E8E7E600BFF74801680F2040058843F9
:10D3F0000F2149050840F44988600020C86000BF3B
:10D40000F248047080E200BF00BFEE4801680720C8
:10D41000800588430F2149050840EB4988600020BA
:10D42000C86000BF084640680F21490548400121F7
:10D430004905084000280FD000BF0846E24988602F
:10D440000020C86000BF022C02D1E120C00001E032
:10D450007D20400106460EE000BF01204005DA496C
:10D46000C8600020886000BF022C01D1C82001E004
:10D47000FF2091300646D548047064213046FDF700
:10D4800055FED34909684843074600223946D1482A
:10D490000068FEF7DBFF054636E200BFC9480168B9
:10D4A0000720800588430F2149050840C649886048
:10D4B0000020C86000BF084640680F214905484069
:10D4C00001214905084000280FD000BF0846BE4989
:10D4D00088600020C86000BF032C02D119204001E1
:10D4E00001E07D20400106460EE000BF012040051E
:10D4F000B549C8600020886000BF032C01D1C82056
:10D5000001E0FF2091300646B048047064213046A7
:10D51000FDF70CFEAE49096848430746002239462C
:10D52000AC480068FEF792FF0546EDE100BFA54854
:10D5300001680720800588430F2149050840A2495A
:10D5400088600020C86000BF084640680F21490578
:10D55000484001214905084000280FD000BF084677
:10D56000994988600020C86000BF042C02D17D204A
:10D57000400101E07D204001064623E000BF01207C
:10D5800040059149C8600020886000BF042C16D176
:10D59000FF20913015E0B6E1AAE1A8E195E182E132
:10D5A0006FE163E127E125E123E121E11FE113E1DF
:10D5B000F0E0D9E0C0E0A9E090E05DE014E0FF20F9
:10D5C000913006468148047064213046FDF7AEFD77
:10D5D0007F49096848430746002239467D4800686C
:10D5E000FEF734FF05468FE100BF7648016807204B
:10D5F000800588430F214905084073498860002051
:10D60000C86000BF084640680F2149054840012115
:10D610004905084000280ED000BF08466A498860C6
:10D620000020C86000BF052C01D1C82001E07D208A
:10D63000400106460EE000BF012040056249C86077
:10D640000020886000BF052C01D1C82001E0FF2028
:10D65000913006465D48047064213046FDF766FD52
:10D660005B49096848430746002239465948006823
:10D67000FEF7ECFE054647E100BF5248016807206F
:10D68000800588430F21490508404F4988600020E4
:10D69000C86000BF084640680F2149054840012185
:10D6A00049050840002806D000BF08464649886062
:10D6B0000020C86007E000BF012040054249C86063
:10D6C0000020886000BF4148047041480022016882
:10D6D00040480068FEF7BAFE054615E100BF39482C
:10D6E00001680720800588430F2149050840364915
:10D6F00088600020C86000BF00BF01204005C860EE
:10D700000020886000BF31480470FDE000BF2E4952
:10D7100048680121890581432B4A916001218905CF
:10D720000140D16000BF2A480022016829480068F2
:10D73000FEF78CFE0546E7E000BF2349486801215B
:10D7400089058143204A9160012189050140D1600A
:10D7500000BF1F4800688200811800221D48006831
:10D76000FEF774FE0546CFE000BF17494868012167
:10D7700089058143144A9160012189050140D160E6
:10D7800000BF13480022016812480068FEF75EFEE1
:10D790000546B9E000BF0C4948680121890581436D
:10D7A000094A9160012189050140D16000BF084804
:10D7B000006882008118002206480068FEF746FED5
:10D7C0000546A1E098200020000500508C20002094
:10D7D00090200020D822020000BF0F2040054C49B5
:10D7E000C8600020886000BF4A4804708CE000BF19
:10D7F00000BF00BF00BF48480068FEF755FE054661
:10D800001120061B002E23D0002D21D10120C005A0
:10D8100042490860012E10D9C8217143084664218D
:10D82000FDF784FC3E490968484307460022394613
:10D8300039480068FEF70AFE054600BF3748006811
:10D840000F21490508403249C860002088600CE07B
:10D8500000BF324800680F21490508402C49886004
:10D860000020C86000BF2D4908604DE000BF0F20B8
:10D870004005274988600020C86000BF2548047023
:10D8800042E000BF07208005214988600020C86071
:10D8900000BF00BF01204005C8600020886000BFB5
:10D8A0001C48047030E000BF0D2040051849886016
:10D8B0000020C86000BF00BF01208005C8600020B4
:10D8C000886000BF134804701EE000BF0320C0053D
:10D8D0000F4988600020C86000BF00BF03204005DA
:10D8E000C8600020886000BF0A4804700CE000BFD8
:10D8F00000BF0F2040050649C8600020886000BFB7
:10D900000448047000E000BF00BF2846F8BD0000D6
:10D91000000500508C200020DC220200982000200E
:10D920009020002070B50246002021E08400124DB6
:10D930002C59A400114D641921680124844014401D
:10D94000002C01D0032400E00024234603252D04ED
:10D950000C46AC4321461C0421430524240707251B
:10D960002D0264198500044E7559AD006151401CAB
:10D970000428DBD3002070BDE42202000007005021
:10D9800010B5044620780221FFF786FB10BD000089
:10D99000F8B50546164A17490320FFF7A5FC0446CB
:10D9A00000BF2646002E07D000BF13A24321C900A6
:10D9B0003046FEF73FFC00BF00BF69460020FFF77E
:10D9C000F9FA044600BF2646002E06D000BF0AA280
:10D9D0000D493046FEF72EFC00BF00BF68460078B8
:10D9E000022801D1012000E000202870F8BD0000CD
:10D9F000A9D10100CD0C00002E2E5C2E2E5C2E2E07
:10DA00005C6D61696E2E63001B0200000021C9433A
:10DA10008200054B9950042804DB0B46011F024A83
:10DA200040325354704700002C27002001468800E4
:10DA3000014A1058704700002C270020F7B585B028
:10DA40000B460020C0430490002A01D0002000E0D3
:10DA500004200390002A01D0042000E00820029056
:10DA600003991EE08800124C2058401C002817D152
:10DA70000846059C0093019246B20D4D20352E5567
:10DA800085000B4E009B7351019A002A04D166B2A7
:10DA9000051F074F40377E5500BF48B2049003E092
:10DAA000491C02988142DDD300BF049808B0F0BD44
:10DAB0002C27002001460148405670474C27002083
:10DAC000F0B587B03E480078142148433C49091D11
:10DAD0004418E7680C21A06848433A494018008977
:10DAE00006900C21A06848433649401840890590AB
:10DAF0000C21A0684843334940184068049003F063
:10DB000001F8014602903846FDF710FB002901D1CB
:10DB1000012000E0002003900599069848430499ED
:10DB200046186088C019A188451800202649086059
:10DB30000398002804D002F0E5FF618888420AD0EB
:10DB40000398002804D0B54202D1A088002802D052
:10DB5000A06803280CD102F0D5FF01460290384698
:10DB6000FDF7E4FA19490860032003F04FFC24E0B4
:10DB700002F0C8FF0190A188C8190199FDF7D6FAF3
:10DB800088081349086002F0BDFF0146019028464D
:10DB9000FDF7CCFA002901D1012000E0002002901D
:10DBA000B54206D00298002803D1B1B2A8B203F062
:10DBB000FDFE022003F02AFC00BF07B0F0BD00000C
:10DBC000902700205C2800200C210020102100203C
:10DBD0000821002010B50848007814214843064960
:10DBE000091D44182078042802D000F0A5F801E0AF
:10DBF00003F050FE10BD00009027002010B50F4824
:10DC00000078142148430D49091D441860880C49C7
:10DC100008602078012804D0032805D0042809D101
:10DC200005E003F037FE06E0FFF74AFF03E004F0EB
:10DC300008FA00E000BF00BF10BD000090270020E0
:10DC40001C21002010B503484078002801D0FFF7C0
:10DC5000D5FF10BD902700200023142141430C4A1A
:10DC600053541421414389184B800223142141430A
:10DC700089188B600023142141438918CB6014213B
:10DC8000414389180B611421414389188B807047E7
:10DC900094270020FFB581B0064617461C484078FF
:10DCA0000A2830D01A4800781949497844180A2CB3
:10DCB00000D30A3C142060431549091D0E5414205A
:10DCC000604340180761142060434118029805C85A
:10DCD000CA608860142161430D4A121D8918049896
:10DCE00048801421614389180A988880101F407861
:10DCF000401C111F487007480078002801D1FFF729
:10DD00007DFF002500E00425284605B0F0BD000099
:10DD1000902700200421002010B50020054908703C
:10DD20004870002403E02046FFF796FF641C0A2C8D
:10DD3000F9D310BD9027002010B5084800781422B0
:10DD40005043064A121D81180020FEF7D7FA00F052
:10DD500007F8002003F05AFB10BD000090270020B8
:10DD600010B509490878FFF777FF07484078401E4B
:10DD70000549487008460078401CC0B208700A285F
:10DD800001D10020087010BD90270020FEB51F486B
:10DD90000068002836D01D480068056803F016F9B1
:10DDA00001901B4804682146019803F02BFEC61C15
:10DDB00018480078002801D103F01AF9AE4201D2C8
:10DDC000284600E0304604192402240A204603F0C5
:10DDD000F7F803F0FBF800900199009803F012FEA9
:10DDE000C71C2046019903F00DFE874209D903F0B4
:10DDF000EDF8074603F0E4F82F20FDF76BF903F088
:10DE00007BFF01E003F012F9FEBD0000402100207D
:10DE1000442100205821002001460888062808DBFC
:10DE200008881922D201904205DD0888104A9042E4
:10DE300001D0072070474888062808DB4888192247
:10DE4000D201904205DD4888094A904201D007205E
:10DE5000F0E70888064A904208D04888904205D0EA
:10DE600008884A88904201DD0720E3E70020E1E7C7
:10DE7000FFFF0000FFB581B006460D46144620881E
:10DE8000801D0499884202D90C2005B0F0BD3046AF
:10DE9000FFF7C2FF074600BF002F01D03846F4E766
:10DEA00000BF0520218868542088401C2080122053
:10DEB000218868542088401C20802288511930888D
:10DEC00004F0B6F821884018208022885119708803
:10DED00004F0AEF82188401820800020D5E700002B
:10DEE00010B5044600BF03A2DA212046FEF7A2F9CE
:10DEF00000BF10BD2E2E5C2E2E5C2E2E5C6D616937
:10DF00006E2E630030B587B01C216846FDF751F9CD
:10DF1000002000900520C00301900F200004029013
:10DF20000321684601730021C18101740A480590EC
:10DF30000A4806906846FEF76FFE044600BF254675
:10DF4000002D06D000BF06A2F1212846FEF772F987
:10DF500000BF00BF07B030BDC1040200E1DE010018
:10DF60002E2E5C2E2E5C2E2E5C6D61696E2E630053
:10DF700038B51F4801F0EAFB002829D11D48007878
:10DF800000280AD01C484069002820D000200090BA
:10DF9000194841696846884719E018480078002800
:10DFA00002D11548456801E01348856800222946DA
:10DFB00013480068FEF74AFA0446002C07D00E48C2
:10DFC0008069002803D00C488169204688470AE010
:10DFD00009484069002806D00120009006484169A0
:10DFE0006846884700BF00200249087038BD00001D
:10DFF000DC200020E4200020A0250020D8200020E4
:10E000001423020010B5012200210846FFF72CF965
:10E01000044600BF002C03D0072C01D0204610BDC1
:10E0200000BF072202210120FFF71EF9044600BFAE
:10E03000002C03D0072C01D02046F0E700BF0422BB
:10E0400002210020FFF710F9044600BF002C03D086
:10E05000072C01D02046E2E700BF0020DFE70000E8
:10E0600070B503460C460820002115E00C254D43F1
:10E070000B4EAD19AD7A2540002D0CD0094DAB42A9
:10E0800005D00C254D43AD192D899D4202D111605B
:10E09000002003E00520491C0029E7D000BF70BD27
:10E0A000FC260020FFFF000010B5044601210C20D3
:10E0B00060430A4A80188172891E0C2060438018D0
:10E0C0000181FF210C2060438018C1720C21614343
:10E0D00088180721FDF76DF810BD0000FC26002010
:10E0E00010B500BFEFF30580C105C90D00291FD091
:10E0F0000A46103A50B200280CDA0E4B0407240FDF
:10E10000083CA408A4001B598407E40EE3401B0646
:10E110009B0F0BE0084B032424021B198408A40066
:10E120001B598407E40EE3401B069B0FD8B210BDB9
:10E130000420FCE71CED00E000E100E010B51C4805
:10E1400000680821084000282FD11A480068401CA8
:10E150001849086018480068002803D0042003F01C
:10E1600001FC24E001F056FB002803D0022003F05C
:10E17000F9FB1CE011480068002813D00C48007817
:10E18000C007C00F002809D10948006801210843D1
:10E1900007490860002003F0E5FB08E0032003F0D6
:10E1A000E1FB04E003F0B2FB01E003F0BFFB10BDB4
:10E1B0002021002010210020082100200C21002017
:10E1C00010B50C4800680821084000280FD1094804
:10E1D000006802210840002805D006480068012197
:10E1E000084304490860022003F0BCFB01E003F08F
:10E1F0009DFB10BD20210020F8B5002535E0E8008A
:10E200001C490968441821780120884006461A48AC
:10E2100000683040002826D017480068B0431649EF
:10E220000860207801F0CAFE074621780120884066
:10E23000124909680840227839469140884211D134
:10E240006078012800D100E000207840012148409A
:10E2500000906068002804D0009BD9B220786268E2
:10E26000904700BF00BF681CC5B2054800788542D2
:10E27000C5DBF8BD242100203421002030210020FE
:10E2800028210020FEB504460E46A1786A4628489B
:10E2900002F046FB0546002D49D160780C21484329
:10E2A00024494018807A40210840402801D0022E9D
:10E2B00001D1214F04E0012E01D1204F00E0204F79
:10E2C000A0781C2250431F4A811800231C22684654
:10E2D000B8470546002D1AD1022E18D060780C21BF
:10E2E000484314494018807A4021884361780C22C1
:10E2F0005143104A8918887260781C225043124A90
:10E3000081181C231A466846B847054600BF022EEE
:10E310000DD020780C2148430C494018807A8000A9
:10E320000B490A58214668469047054600BFFEBD86
:10E33000E8200020FC260020E10E0200B50D0200BE
:10E3400029180200F8250020BC26002008270020FC
:10E3500018230200F8B505460E461B4F00242EE098
:10E360001C20604319494018807EFF2826D1307850
:10E37000022814D01C2060434018807E022188436C
:10E380001C216143114A891888761C216143891830
:10E390000846103007223146FCF7F2FE0BE01C2045
:10E3A00060430A494018807E410849001C206043B0
:10E3B000064A801881762C70002702E0641C072C26
:10E3C000CED300BF3846F8BD43800000F8250020BA
:10E3D000F8B505460E4617460520009000241BE0C0
:10E3E000002D06D11C2060430E494018008BB84216
:10E3F0000DD0002D0FD01C2161430A4A8918084610
:10E40000103007222946FCF7DFFE002803D13460D4
:10E410000020009002E0641C072CE1D300BF0098AC
:10E42000F8BD0000F82500207CB50546A9B26A4673
:10E43000084802F075FA0446002C09D17421684698
:10E4400002F0C0FA0446002C02D1284602F0D6F9A8
:10E4500020467CBDE8200020F8B506460F4614464D
:10E4600000BF2546002D07D000BF05A2FF21C13106
:10E470002846FDF7DFFE00BF00BF0020F8BD00000A
:10E480002E2E5C2E2E5C2E2E5C6D61696E2E63002E
:10E490007FB50546039502F03BFB044600BF2646C8
:10E4A000002E07D000BF2AA2FF21DB313046FDF746
:10E4B000C1FE00BF00BF03A800F08CFB044600BFF4
:10E4C0002646002E07D000BF21A2FF21DE313046B4
:10E4D000FDF7B0FE00BF00BF052101A80130FCF729
:10E4E00068FE6846407941084900491C6846417108
:10E4F0004079022188430146684641714079702184
:10E500008843014630316846417140798021884313
:10E51000014668464171072181711021C17110487F
:10E52000009001216846017169460E4800F0FEFC2A
:10E53000044600BF2646002E07D000BF04A2FF21DC
:10E54000EC313046FDF776FE00BF00BF7FBD000016
:10E550002E2E5C2E2E5C2E2E5C6D61696E2E63005D
:10E5600059E4010080200020F0B591B00446FF205E
:10E570000F9000260020099000BFF948007800287D
:10E5800001D111B0F0BD00BF00BFF64800680028FF
:10E5900000D1F6E700BF0EA800F00EFB054600BF55
:10E5A0002F46002F06D000BFEF4AF0493846FDF74E
:10E5B00041FE00BF00BF00200A900025201D0C90E6
:10E5C0002C2168468186FF2108A8817600210176EA
:10E5D000002010902088102813D0A08810AA0221B3
:10E5E000FFF73EFD0546002D0BD10C211098484346
:10E5F000DF494018C17A08A881761098C1B208A8EE
:10E600004176208819287DD008DC10280DD01128EB
:10E610007ED0132878D0142877D1B7E01A2875D087
:10E620001E2874D05228F7D18DE210AF3A4601214E
:10E63000D048FFF715FD08900898002807D102215F
:10E640000C2238685043CA4A8018817201E00420C5
:10E65000089008980546002D53D10126112108A8DD
:10E6600001731098C1B208A84176A1880C221098B5
:10E670005043BF4A8018018102210C221098504358
:10E68000BB4A801881720C2210995143B84A8818ED
:10E69000072221460831FCF773FDE07D3040002859
:10E6A0000AD0E07D4008B449085CFF280BD0E07D2B
:10E6B0004008085C0F9006E0AE4A0FA920460830DB
:10E6C000FFF786FE0546002D1BD10F98C1B20C2224
:10E6D00010985043A64A8018C1720C2110984843E4
:10E6E00011464018807A082108430C2210995143A2
:10E6F0009F4A8918887208A90F9888760EA8FEF795
:10E7000031FC2FE2FCE003E085E02AE2B8E123E2FD
:10E710000C211098484396494018807A022188437A
:10E720000C2210995143924A891888720C21109832
:10E73000484311464018807A0821084008280ED125
:10E740000C211098484311464018807A80210840D7
:10E7500080280FD100210EA8FFF794FD0AE008A839
:10E76000807EFF2806D008A9887E02F047F8FF20A7
:10E7700008A9887610210C22109850437C4A8018F2
:10E7800081720126122008A90873EBE10C21109870
:10E79000484377494018C07AFF2823D1228A0FA91D
:10E7A0000020FFF715FE0546002D1BD10F98C1B2C2
:10E7B0000C22109850436E4A8018C1720C21109898
:10E7C000484311464018807A082108430C221099CA
:10E7D0005143674A8918887208A90F9888760EA84D
:10E7E000FEF7C0FB0C211098484361494018C07ADD
:10E7F000FF2805D01C211098484360494018099013
:10E800001C23109959435E4BCA18A088002309990C
:10E8100086DF0546A6E1132008A908730C2110988D
:10E82000484353494018807A042108430C22109928
:10E8300051434F4A8918887201260C211098484389
:10E8400011464018C07AFF283ED10C221098504340
:10E850000A4681180FA8FFF77DFD0546002D0BD154
:10E8600008A90F9888760F98C1B20C2210985043CF
:10E870003F4A8018C17201E00A95012600200590E8
:10E880000C21109848433A494018C07A1C2148434B
:10E890003B49411806910021079108911C211098CD
:10E8A000484336494018019000200290039004909C
:10E8B000A08801AB2B4A121D00217FDF0546002DE9
:10E8C00001D00A9500261AE00C21109848432849E7
:10E8D0004018807A402108430C2210995143244A61
:10E8E00089188872162008A90873A08800231A4680
:10E8F00085217FDF0546002D01D00A95002631E1F4
:10E900001848407A40084000164948720C21109877
:10E91000484317494018807A042188430C221099F3
:10E920005143134A89188872142008A908730126D4
:10E93000207A002826D00C21109848431146401810
:10E94000807A40210840402809D00C221099514378
:10E95000074A8918C87AFFF767FD207A0A908EE087
:10E96000F4200020082700209C230200F109000069
:10E97000FC260020FFFF0000F5200020BC26002020
:10E98000F8250020607A4007C00F002877D008A83B
:10E99000807EFF2873D00C21109848437F4940188F
:10E9A000807A082108430C22109951437B4A891828
:10E9B0008872607B8007C00F00280FD008A8807E77
:10E9C0001C21484376494018807E4108490008A828
:10E9D000807E1C225043724A801881760C21109848
:10E9E00048436E494018C07AFF2848D00C2110983F
:10E9F00048436A49085C022820D00C23109A5A43E5
:10EA00000B46D11808AA927E1C235A43644BD21895
:10EA1000104610300722FCF7B3FB08A8807E1C21AB
:10EA200048435F494018807E0221884308A9897EB7
:10EA30001C2251435A4A891888761CE01C211098E0
:10EA4000484358494018418A08A8807E1C225043F8
:10EA5000534A8018018308A8807E1C214843114630
:10EA60004018807E4108490008A8807E1C2250433F
:10EA70004B4A8018817601210EA8FFF703FC71E054
:10EA8000207A000901283DD1207A0007000F0128D3
:10EA900038D10C211098484340494018807A082109
:10EAA000084008282ED12422109951433E4A891843
:10EAB00008181A21FCF77DFB162008A908730C2101
:10EAC0001098484335494018807A202108430C2289
:10EAD00010995143314A891888720C211098484383
:10EAE00011464018807A402108430C221099514366
:10EAF0002A4A891888722D48407A022108432B49F6
:10EB000048721CE00C211098484324494018807A30
:10EB1000802108430C2210995143204A8918887299
:10EB2000152008A908732148807A8000204A1158CE
:10EB30000EA888470546002D01D01E480A900020E7
:10EB40000A9001260EE01948807A8000184A115870
:10EB50000EA888470A9005E0132008A9087301262B
:10EB600000E000BF00BF002E16D00BA90EA80A9A25
:10EB7000FDF7B6FB08A8007B12280DD100BF0C21C1
:10EB80001098484305494018807A012802D010980F
:10EB9000FFF78AFA00BF00BF00BFF2E4FC260020A6
:10EBA000F8250020BC260020D826002008270020B9
:10EBB00038230200418000000146002901D10448A9
:10EBC0007047FF20087048708870C8700020F7E711
:10EBD0000E8000007FB50646002E02D1374804B0F3
:10EBE00070BD00240FE000BF00210C206043344AB8
:10EBF00011500C206043801841720C206043801833
:10EC0000817200BF641C002CEDD0002403E020467C
:10EC1000FFF74AFA641C002CF9D024212948FCF79C
:10EC2000C8FA002406E0204601F0E8FDFF2026494E
:10EC30000855641C072CF6D374216846818107218E
:10EC4000C18122480290224902A802F023F8054619
:10EC5000002D30D101201F4908703078002821D1C3
:10EC600000241CE0A1B26A46194801F059FE05468D
:10EC7000002D0FD11C216143174A881800231C2244
:10EC8000694601F089FF0546002D07D00020114993
:10EC9000087006E000200F49087002E0641C072C91
:10ECA000E0D308E06A469089D289504381B208488F
:10ECB00001F088FE0546284691E700000E8000001E
:10ECC00008270020D8260020F5200020DDEC0100D8
:10ECD000E8200020F4200020F8250020FFB593B0A4
:10ECE0001D4600BF85480068002801D117B0F0BD5F
:10ECF00000BF1C98742800D9F8E7012009900FA8DC
:10ED0000FFF75AFF064600BF3746002F06D000BF68
:10ED10007B4A7C493846FDF78DFA00BF00BF0021D1
:10ED200008A8017710A801700E951C980D90002777
:10ED300012E0B9B20AAA744801F0F2FD0646002EAC
:10ED400009D108220AA91398FCF73EFA002802D13B
:10ED500008A98F7702E07F1C072FEAD300BF08A81D
:10ED6000807FFF2879D0149803280AD11C98742832
:10ED700003D1202010A908709AE0402010A9087043
:10ED800096E06249681A1C21FCF7D0F90446072C6A
:10ED90001DD20CA811901598002810D108A9887FC1
:10EDA000012181405A4A12681140002901D00121F5
:10EDB00000E00021002902D10020099078E008A994
:10EDC000887F03F043F9202010A9087070E05149B2
:10EDD000681A1C21FCF7AAF90446002C1BD10CA8C8
:10EDE0001190202110A8017008A8447700200590F8
:10EDF000494906911C20604346494018019008A8E3
:10EE0000807F1C21484341494018029001A80E9080
:10EE100020200D904CE04149681A2421FCF786F926
:10EE20000446002C1AD1302110A8017008A844779C
:10EE30000121C1770C20604339494018807A0221B2
:10EE40000840022834D008A9497F24225143334A7C
:10EE500088182421FCF7ADF92AE04DE00020099044
:10EE6000402010A908702F48854204D10320149037
:10EE7000012009901CE008A8807F80002A490858DA
:10EE8000A84215D1012009900CA8119000200CE097
:10EE900008A98A7F0C214143214BC918C97A8A42AB
:10EEA00002D108AA507702E0401C0028F0D000BF31
:10EEB0000998012820D11498032806D110A90878B0
:10EEC0000321084310A908700FE01498022806D106
:10EED00010A908780121084310A9087005E010A9BD
:10EEE00008780221084310A908700CA8119010A9F5
:10EEF0000FA8159AFDF7F4F900BFF7E608270020E0
:10EF00009C230200A1050000E8200020F825002035
:10EF1000F0200020BC26002014270020D826002046
:10EF2000FC26002048230200DC25002070B50546A1
:10EF30000C4600BF29480078002801D1284870BD40
:10EF400000BF002D02D12648801DF8E7002C02D119
:10EF50002348801DF3E72068002802D12048801D47
:10EF6000EDE720480068002834D11E492068086079
:10EF70000522611D1B48001DFCF702F92079194983
:10EF800088720846007A4008400008720846007AF5
:10EF900002218843801C134908720846007A042124
:10EFA0008843104908720846C07940084000401C58
:10EFB000C8710846C07902218843801C0949C8717C
:10EFC0000846C079042188430649C871002028708A
:10EFD000002601E0024E361F3046B0E7F420002044
:10EFE0000880000008270020014614480078144AD1
:10EFF000127890421DD011480078401C0F4A1070C2
:10F0000010460078022801D1002010700B480078CB
:10F0100080000C4A105808600B4A08681268801873
:10F02000094A1060104600680002000A10600120C2
:10F0300070470020086000BFFAE700005021002060
:10F0400051210020482100204421002010B50D4806
:10F05000006808210840002810D10B480068401CB7
:10F060000949086000F0D6FB002802D1FEF7B2FD86
:10F0700006E00648007802F0C9F901E000F0CAFD98
:10F0800010BD0000202100201021002004210020BC
:10F09000F0B50346002420E0134E306806689E4217
:10F0A00003D90668F61A06601BE006689B1B066813
:10F0B0003419002606600C4E35680B4FC6693E6059
:10F0C000C668002E08D00E193602360A4660C66899
:10F0D00086601668C661156000BF03480068002896
:10F0E000DAD100BFF0BD00004021002010B5044679
:10F0F000A07EFF2802D0A07E01F01AF900206076E1
:10F100002071201D2168884710BD30B50446108845
:10F11000C01C984201D90C2030BD022015884855EA
:10F120001088401C10800120158848551088401C0C
:10F13000108015884C551088401C10800020EBE78B
:10F1400038B500200090684601F0D2FB0446082C38
:10F1500003D0002C01D0012038BD082C07D168460F
:10F1600000F070F80446002C01D00020F4E700986D
:10F17000002801D00120EFE70020EDE710B504469C
:10F18000002C02D0112C08D100E00AE006480068EB
:10F19000082108430449086003E02046FDF7C6F84B
:10F1A00000BF00BF10BD00002021002010B50C489A
:10F1B0000068401C0A49086003280DD009480078FF
:10F1C000022804D00748007802F020F907E006483A
:10F1D000007802F0C7FB02E00D20FDF7A7F810BD94
:10F1E00014210020042100200521002010B50A4828
:10F1F0000078012804D0022808D0032809D102E0B1
:10F2000002F04EFB06E0FFF721FF03E002F09EFB59
:10F2100000E000BF00BF10BD0421002070B504460F
:10F22000204628DF0546FFF7A9FF70BDF8B5044664
:10F230000D46164632462946204629DF0746FFF787
:10F240009DFFF8BD0146002901D103207047024807
:10F25000406D08600020F9E7D42800203EB500BFCB
:10F260006846007801090901491C00916846007848
:10F27000F02188431030009000BF082216A1684694
:10F280007CDF044600BF2546002D06D000BF15A236
:10F29000A8212846FCF7CEFF00BF00BF0020019048
:10F2A0000290502168468180A021C1800021018107
:10F2B000FF219131418101A87ADF044600BF254634
:10F2C000002D06D000BF07A2B2212846FCF7B2FFEE
:10F2D00000BF00BF3EBD0000424C452D5253534974
:10F2E000000000002E2E5C2E2E5C2E2E5C6D6169BF
:10F2F0006E2E6300014600207047024600207047D2
:10F300000246002070470000F8B50546002700209F
:10F31000009000266878242148433349401840680B
:10F32000002827D068780C21484330494018807A5B
:10F330008021084080281DD168780C2148432B4942
:10F340004018807A40210840402813D06878242152
:10F350004843254940180746083768782421484320
:10F3600021494018808880B2009068782421484361
:10F370001D490E5869780C2251431C4A8918088986
:10F3800033463946009AA9DF04460B2C0BD10126DF
:10F3900069780C225143154A891808893346394641
:10F3A000009AA9DF0446002C00D0114C012E18D180
:10F3B00069780C2251430D4A891808890D4A0C219D
:10F3C000A7DF0446002C0CD00B48844208D0082C40
:10F3D00006D0801C844203D0112C01D0002400E010
:10F3E000034C2046F8BD0000D8260020FC26002053
:10F3F00041800000FFFF00000230000070B50546AC
:10F400000C466178242251430D4A8818382324225F
:10F41000294601F0C1FB0646002E0FD16078242159
:10F420004843074940184068401C002806D1002185
:10F43000607824225043024A80184160304670BDF3
:10F44000D8260020F3B589B00C4603271A2008906F
:10F4500061780C2251432E4A891808893B4608AA34
:10F4600001A9AADF0646002E4FD16178242251431C
:10F47000284A89180846083069460A8C01A9FBF712
:10F48000A3FE002812D160780C214843204940187F
:10F49000807A02210840022837D061782422514323
:10F4A0001C4A88182421FBF784FE2EE06078242172
:10F4B0004843184940184068002801D0164D00E024
:10F4C000164D60782421484312490F506946098C33
:10F4D0006078242250430F4A8018416061782422CA
:10F4E00051430C4A89180846083069460A8C01A91C
:10F4F000FBF746FE607824225043064A81183823E1
:10F5000024220998A847064600BF00200BB0F0BD92
:10F51000FC260020D8260020E10E0200B50D0200D6
:10F5200070B505462846FFF7EFFE0446002C02D1D1
:10F5300000BF00BF0446204670BD70B505460E46AC
:10F5400031462846FFF75AFF0446002C02D100BF7F
:10F5500000BF0446204670BD70B505460E463146D4
:10F560002846FFF76FFF0446002C02D100BF00BF02
:10F570000446204670BD0000F8B505460F46012040
:10F58000A840044618480068FCF78EFF0646002E87
:10F5900000D0F8BD15480068204000281DD128463D
:10F5A00000F00CFD002805D01148006820431049E8
:10F5B000086004E00E480068A0430D4908600B484D
:10F5C000006820430949086000220A48016806488B
:10F5D0000068FCF73BFF064604E004480068A043CF
:10F5E0000249086000BFD4E78423020034210020D0
:10F5F000302100202C21002010B518480068082177
:10F600000840002826D100F05BF900280CD000202B
:10F610001349086011480068012108430F49086038
:10F62000002002F09FF917E000F0F4F8002806D05F
:10F6300000200B490860022002F094F90CE0094810
:10F640000068002803D0032002F08CF904E002F0E7
:10F650005DF901E002F06AF910BD000020210020F0
:10F66000082100200C210020F8B529480078002846
:10F6700000D1F8BD27480068002801D1012000E032
:10F680000020054624480068002801D1012000E040
:10F690000020064600BF002D14D1684652DF044604
:10F6A000052C01D101250CE0002C06D000BF1B4A1F
:10F6B00093212046FCF7BEFD03E016490098096837
:10F6C000884700BF002E1AD115480088009069466F
:10F6D0001448006861DF0446052C01D101260DE0C5
:10F6E000002C06D000BF0D4AB2212046FCF7A2FD37
:10F6F00004E00C48006808490968884700BF002DED
:10F7000002D0002E00D000E0C5E700BF00BFB0E788
:10F71000682100207821002074210020E8230200C5
:10F72000702100206C21002070B505460C46FF2199
:10F730000931284600F024FE2146284602F039FB14
:10F74000002802D12046FFF7D1FC70BD0146488851
:10F75000064A1288904206DB4888044A5288904242
:10F7600001DC012070470020FCE70000D0200020D1
:10F770000C48008CC0B2012812D10A48808C0007C6
:10F78000000F00280CD10748806AF021084040286B
:10F7900006D10448C06A0840002801D10120704702
:10F7A0000020FCE7C00F00F01948008CC0B201280F
:10F7B0002CD11748808C0007000F002826D1144850
:10F7C000806AF0210840002806D11148C06A08402C
:10F7D000002801D1012070470D48806AF0210840BF
:10F7E000102806D10A48C06A0840002801D101202B
:10F7F000F1E70748806AF0210840302806D1044824
:10F80000C06A0840002801D10120E4E70020E2E7B7
:10F81000C00F00F0F8B51248007814214843104991
:10F82000091D4518EF6801F06DF900906988C91944
:10F83000AA888918481E0099FBF778FC06460948F3
:10F840000068B04207D307480068B04205D10648B7
:10F850000068002801D1012400E000242046F8BD02
:10F8600090270020102100200C2100201348008C3C
:10F87000C0B201281FD11148808C0007000F00285A
:10F8800019D10E48806AF0210840A02806D10B4803
:10F89000C06A0840002801D1012070470748806AEB
:10F8A000F0210840D02806D10448C06A084000284A
:10F8B00001D10120F1E70020EFE70000C00F00F0C8
:10F8C000F8B510480078142148430E49091D451821
:10F8D000EE6801F017F9009069888919AA888918DB
:10F8E000481E0099FBF722FC0746074800680028DD
:10F8F00005D006480068B84201D1012400E0002488
:10F900002046F8BD902700200C2100201021002067
:10F9100001468807800F002801D101207047002090
:10F92000FCE730B504461088C01C984201D90C2071
:10F9300030BD0220158848551088401C10801C20BE
:10F94000158848551088401C1080012C06D0022CC8
:10F9500008D0032C0AD0042C10D10BE0002015880D
:10F9600048550DE001201588485509E0022015880A
:10F97000485505E003201588485501E00720D7E7E2
:10F9800000BF1088401C10800020D1E710B504464D
:10F9900005480078C007C00F002803D0034800784E
:10F9A000FDF70CFD10BD0000942000208C200020ED
:10F9B000F8B5214800680090204806782EE0F00055
:10F9C0001F4909684418257824E0182068436168B5
:10F9D0000F18681CC5B2A078A84200D1002538785D
:10F9E000022802D0032812D103E0786802F0B6F8AA
:10F9F0000EE007E010490868002101740E4AC16951
:10FA0000116000BF0C4800680028F3D100E000BF7F
:10FA100000BF00BF6078A842D7D100BF3046711E3A
:10FA2000CEB20028CBD1044801680098814201D0B1
:10FA30000120F8BD0020FCE74021002038210020F3
:10FA40003C210020FEB506463C48006801903C4839
:10FA50000078009063E00098C0003A4909684518B2
:10FA600056E0002E02D03446E66924E029781823B7
:10FA700059436A6850182978491C29702978AA784E
:10FA8000914201D10021297044680178012902D1F5
:10FA9000217C002900D03BE081686160C168A160E1
:10FAA0000169E1604169A16127490978002901D014
:10FAB0000021616000BF254960680968401A0002A2
:10FAC000000A2349884208D220496068096801F089
:10FAD00099FFA168401820600FE01C486168006829
:10FAE00001F090FF0746A068B84203D9A068C01B88
:10FAF000206001E00020206000BF00206060A06066
:10FB0000012020740020E061204601F0F1FF00BFD9
:10FB1000002EA6D1287869788842A2D100BF00982B
:10FB2000411EC9B20091002895D10448016801988E
:10FB3000814201D00120FEBD0020FCE740210020D1
:10FB4000382100203C2100205921002044210020A0
:10FB5000FFFF7F0086B002F0D5F805A8FDF718FF7B
:10FB6000FDF774F9244B0FCB049301AB07C30421B9
:10FB70006846C171032101721D2101711C2181712F
:10FB8000192141710321017400BF002201A91B4802
:10FB900000F056FA0546002D06D000BF18A21C49F9
:10FBA0002846FCF747FB00BF00BF144803C8FCF71A
:10FBB00023FA6846007DFEF76BFCFFF74FFB01F070
:10FBC000DFFBFCF7D3F9FEF79DF9FCF7B5FC03204A
:10FBD000FCF7C4FE044600BF2546002D07D000BF39
:10FBE00007A20B490D312846FCF724FB00BF00BFDC
:10FBF00000BF00F063FEFCE7A82202009C22020086
:10FC00002E2E5C2E2E5C2E2E5C6D61696E2E630096
:10FC10003E02000010B505480068082188430349EA
:10FC200008600348007801F0F1FB10BD202100209E
:10FC300004210020FFB581B005460E461446A88871
:10FC4000871C2088801CC1190498814202D90C208D
:10FC500005B0F0BDFE2F01D90C20F9E7781C2188F2
:10FC600070542088401C2080FF20218870542088F8
:10FC7000401C208022889119288802F0D9F9218817
:10FC800040182080A88800280EDDA868002801D12F
:10FC90000720DDE7AA8823889819A968FBF770FA7E
:10FCA0002088A988401820800020D1E7FFB583B0C4
:10FCB00005460F4614462878012805D168780028A3
:10FCC00002D1072007B0F0BD2088801C0699884229
:10FCD00009D82878012808D12088801C6978411823
:10FCE0000698814201D90C20ECE721880698401A39
:10FCF000801E86B201962188891CC81901A97DDF62
:10FD0000029000BF0298002801D00298DAE700BFF5
:10FD10002878022806D168468088B04202DC092093
:10FD200000900BE0082000902878012805D1687821
:10FD3000B04202DC6878019000E001966846808855
:10FD4000FE2801D90C20BDE768468088401C218828
:10FD500078542088401C208021880098785420887E
:10FD6000401C208021886846808808182080002058
:10FD7000A8E701460020704702460020704702466F
:10FD80000020704730B585B004460D4620880D49E7
:10FD9000884214D00C210491002000900190029020
:10FDA0000390A18868460180012181700021818033
:10FDB00004A80290039520886946A6DF00BF05B01D
:10FDC00030BD0000FFFF000070B504460D46294617
:10FDD0002046FBF739FB00BFE106C90E0120884031
:10FDE0000549086000BF00BFE106C90E0120884038
:10FDF0000249086000BF70BD80E200E000E100E061
:10FE0000FEB505460E46284600F034FD002820D0F9
:10FE10002846FDF74FFE001F28490F5CBC11032C3C
:10FE20000CD100BF264800690121A94008400028E4
:10FE300001D0032000E00220019005E0012C01D157
:10FE4000022000E0032001902846019900F034FAD6
:10FE500032E0284600F01AFD00282DD02846FDF794
:10FE600029FE0446A000FF30013080B201902046F8
:10FE70001449512212018918820089580122114324
:10FE8000104A51231B01D2188300D15000BF0198A2
:10FE900000F05CFA002E0ED02846FDF70BFE009015
:10FEA000FDF7C4FD0746002F04D00121A1400846FC
:10FEB00000F060FA00BF00BFFEBD00006C2700200C
:10FEC0000005005000600040F7B584B004460E46BF
:10FED00000200390204600F0BFFC002802D008203C
:10FEE000039060E0F27820460699FDF7A7FD0546ED
:10FEF000681C002854D0B078002810D000BFA100A2
:10FF00002A4A8918096802229143084605210907EF
:10FF1000072212028918A200885000BF0BE07778F0
:10FF2000002000903B46024601460190204600F02A
:10FF300091F900BF00BFF078002826D037781C4820
:10FF4000512109014018A90040581A490840184990
:10FF5000512212018918AA0088501548512109011F
:10FF60004018A900415820021F22120210403A04F2
:10FF700003231B041A40104301430D485122120170
:10FF80008018AA00815000BF0CE0281F0A49085CB5
:10FF900031788901084342B2281F07490A5401E019
:10FFA0000420039000BF039807B0F0BD0007005085
:10FFB00000600040FFE0FCFF6C270020014600BF0E
:10FFC00005480069C840C007C00F002801D00120C3
:10FFD00070470020FCE700000005005010B51248F3
:10FFE0000079002801D0082010BD002404E020463C
:10FFF00000F05CFC601CC4B2202CF8DB002404E0A0
:020000040002F8
:100000002046FDF703FD601CC4B2082CF8DB032179
:100010000620FFF7D9FE0120C00700F0ABF901214F
:10002000014801710020DFE76C27002003480079B8
:10003000002801D0012070470020FCE76C27002039
:10004000F7B584B005460C46687940015949401817
:1000500003900398007E002802D0082007B0F0BD6E
:10006000002C03D16879000153494418039906987C
:100070000860207B012803DC207800F049F902E0C9
:10008000207800F055F9012105200007072212020F
:1000900080182278920081506078FF2808D060781C
:1000A0000290029800F034F9029800F0F9F802E0AA
:1000B0000020C0430290A078FF280CD0A67800272B
:1000C000002000903B46024601460190304600F079
:1000D000D4F800BF01E00026F643E078FF2805D001
:1000E000E07800F025F9E07800F0DAF8E078697956
:1000F0004901304A891888762F68237802980522AA
:100100001202BA189360052109027918C860052106
:10011000090279180E6100BFA0680521090279184B
:10012000486200BF217B637B002B01D0012200E0ED
:1001300000221046002906D0012906D0022907D046
:10014000032908D000BF00BF08E00222104305E0E9
:100150000422104302E00622104300BF00BF052224
:100160001202BA18506500BF607969794901114AD5
:100170008918C87603980068002803D004213846FF
:1001800000F006F900BF0120052109027918086076
:1001900000BF03980068002804D021790420285665
:1001A000FFF712FE002103984176012103980176A2
:1001B000002053E77428002074230200FFB585B0A7
:1001C0000C4615461E460E9F01940396684605721E
:1001D0000774002201A9059800F002F809B0F0BDEB
:1001E000F7B5054616466879400119494418607EFE
:1001F000002801D01120FEBD2068002805D0142061
:100200003040002801D10120607601990A468CCA4D
:10021000C9682761E360A2606161607F40084000B7
:100220006077607F022188436077A07EFF2802D03C
:10023000A07E00F06DF8002E03D00020607606202E
:10024000D9E728682146019A01F06CF90020D2E72D
:1002500074280020F0B5059C55000D439E003543E1
:1002600026023543069E3604354305263607072702
:100270003F02F6198700F551F0BDF0B5059C550019
:100280000D439E00354326023543069E3604354312
:100290000526360707273F02F6198700F551F0BDFE
:1002A0001CB504460020009003460122114601902F
:1002B0002046FFF7E2FF1CBD10B5052212070723F9
:1002C0001B02D2188300D25803231B049A43052330
:1002D0001B07072424021B1984001A510522120748
:1002E00007231B02D2188300D2580B041A4305239C
:1002F0001B07072424021B1984001A5110BD00009B
:1003000001218140014AD160704700000005005082
:1003100001218140014AD160704700000005005072
:1003200001218140014A91607047000000050050A2
:1003300001218140014A9160704700000005005092
:1003400001460148081870470060004010B5044697
:100350002046FFF7F5FF0021016010BD10B50446EF
:100360002046FFF7EDFF0068012800D110BD0020F6
:10037000FCE700000149486070470000006300404E
:100380000022425070470322120282189160704787
:10039000032212028218516070470522120282184D
:1003A000D161704701460922D2018A1810680922DA
:1003B000D2018A181060704702465058002801D0B8
:1003C000012070470020FCE70022425070470322C2
:1003D0001202821891607047024603200002101832
:1003E00040680840002801D0012070470020FCE749
:1003F000012242507047000070B50546002D13D011
:10040000032D14D10220FCF75DFF044600BF2646F1
:10041000002E07D000BF07A2FF2122313046FBF794
:1004200009FF00BF00BF03E000F0B6FF00E000BF1F
:1004300000BF70BD2E2E5C2E2E5C2E2E5C6D616971
:100440006E2E630070B505462888102802D011284A
:1004500025D11BE00720FCF735FF044600BF2646E8
:10046000002E07D000BF0FA2FF213A313046FBF724
:10047000E1FE00BF00BFA8880E4908800E48002298
:1004800041690E480068FBF7E1FF09E00020C04326
:100490000849088009480068FCF706F800E000BF3A
:1004A00000BF70BD2E2E5C2E2E5C2E2E5C6D616901
:1004B0006E2E630082200020F4210020942202008E
:1004C00070B505462878002810D13B2108480088DF
:1004D00076DF044600BF2646002E06D000BF05A2E8
:1004E000CF213046FBF7A6FE00BF00BF70BD000065
:1004F000822000202E2E5C2E2E5C2E2E5C6D6169DB
:100500006E2E630010B504460822A1180248FAF7BF
:1005100037FEFDF72DFD10BDDC20002010B5044690
:10052000A088094908800822214618310748FAF7AF
:1005300027FE0020064908700648C089002801D11E
:10054000FDF716FD10BD0000DA200020DC200020A1
:10055000D8200020A025002070B505460020C0430B
:100560000A49088000200A4908700A480068FBF719
:100570009BFF0446002C07D007488069002803D061
:10058000054881692046884770BD0000DA200020B8
:10059000D820002014230200A025002070B50546B5
:1005A000AC1D20881249C989884220D1608902285F
:1005B0001DD100BF00BF217B627B120211430846A0
:1005C000C107C90F002902D0FDF7D2FC0FE009488E
:1005D0000068FBF769FF0646002E07D004488069D3
:1005E000002803D0024881693046884700BF70BDAB
:1005F000A02500201423020070B594B00446494B96
:100600000FCB0FAD0FC5484810A988810E310FA838
:1006100063DFC5B200BF2E46002E06D000BF43A246
:100620004B213046FBF706FE00BF00BF1C2108A887
:10063000FAF7BFFD08A8007802218843811C08A8AA
:10064000017000780821884308A9087000200790ED
:1006500000BF6846007F01090901491C684601770F
:10066000007FF021884310306946087700BF00BF43
:100670006846407F01090901491C68464177407F6F
:10068000F021884310306946487700BF6846807F74
:1006900006218843811C6846817707A80D9008A829
:1006A000007810218843411808A8017000200690A6
:1006B0006846807E06218843801C6946887600BF94
:1006C0006846007E01090901491C68460176007EE2
:1006D000F021884310306946087600BF142101A834
:1006E000FAF767FD06A8029013A801900C2168464E
:1006F000018281812046203005906088231D01AA57
:1007000008A9A2DFC5B200BF2E46002E06D000BF4A
:1007100006A276213046FBF78DFD00BF00BF00200A
:1007200014B070BDB8220200EFBE00002E2E5C2E69
:100730002E5C2E2E5C6F75725F73657276696365D1
:100740002E630000F0B585B004460E460020E06040
:1007500020610120C00360612C20C043A061E661DC
:10076000174B0FCB6D460FC51648694608821231EC
:10077000684663DF054600BF2F46002F06D000BF46
:1007800011A292213846FBF755FD00BF00BF0020A3
:10079000C0432080A21C04A90120A0DF054600BFA1
:1007A0002F46002F06D000BF07A29D213846FBF739
:1007B00041FD00BF00BF2046FFF71EFF05B0F0BDA2
:1007C000C82202000DF000002E2E5C2E2E5C2E2E74
:1007D0005C6F75725F736572766963652E63000086
:1007E0000246002105E0505C002801D0012070473E
:1007F000491C0629F7D30020F9E7000010B504468C
:100800001C216143124A8918084611300621FAF763
:10081000D0FC1C2161430E4A88181021FAF7C9FC4C
:10082000FF211C2060430A4A801801741C20604389
:10083000801881760021C9431C2060438018018301
:10084000204601F003FC0020A100024A505010BDD8
:10085000F8250020DC250020014605484056C01739
:10086000401C002801D0012070470020FCE7000058
:100870004C270020014604484056042801DB012093
:1008800070470020FCE700004C2700200146064886
:100890004056002805DB04484056042801DA0120B0
:1008A00070470020FCE700004C2700200022D243C4
:1008B00001490A54704700004C27002070B548DFFA
:1008C000044600BF2546002D06D000BF03A20749FD
:1008D0002846FBF7AFFC00BF00BF70BD2E2E5C2E7C
:1008E0002E5C2E2E5C6D61696E2E63002602000068
:1008F000014600BF0848006804221040002801D1CA
:100900000820704700BF002901D10E20F9E70348F5
:10091000407808600020F4E7202100209027002084
:100920003CB5034600BF2548006804242040002849
:1009300001D108203CBD00BF002B01D10E20F9E7FA
:10094000002A01D10E20F5E71868022806D20C24EF
:10095000186860431A4C2058002801D10720E9E7A5
:100960005C68186801940090019C0C251868684325
:10097000134D401900894843201801900C24009819
:1009800060432C46001940890C25009C6C430C4D9B
:100990006419248960430C25009C6C43084D64193C
:1009A00064680019019CA04201D80720C2E7019C9D
:1009B0000098546010600020BCE700002021002057
:1009C0005C280020FEB504460D4600BF4148006883
:1009D00004210840002801D10820FEBD00BF002CE2
:1009E00001D10E20F9E72068022806D20C212068E8
:1009F000484339490858002801D10720EDE70C2168
:100A0000206848433449401840890C2221685143EA
:100A1000314A8918098948430C22216851432E4ADA
:100A20008918496840186168884201D80720D4E7CE
:100A30006068FEF76DFF002801D11020CDE70C2380
:100A400020685843244BC01862684068101A009010
:100A50000C22206850431A46801801890098FAF742
:100A600065FB002901D00720B7E70C22206850431E
:100A7000194A801801892846FAF76EFB002901D12E
:100A8000002D01D10720A8E70C2120684843124916
:100A9000401806890C22216851430F4A8918498958
:100AA0004E43606847190C2120684843114640189E
:100AB0004068801901900198874201D907208CE78E
:100AC00000202B460246214600900320FDF7E2F865
